{
    "contractName": "KycContract",
    "abi": [
        {
            "anonymous": false,
            "inputs": [
                {
                    "indexed": true,
                    "internalType": "address",
                    "name": "previousOwner",
                    "type": "address"
                },
                {
                    "indexed": true,
                    "internalType": "address",
                    "name": "newOwner",
                    "type": "address"
                }
            ],
            "name": "OwnershipTransferred",
            "type": "event"
        },
        {
            "inputs": [
                {
                    "internalType": "address",
                    "name": "_addr",
                    "type": "address"
                }
            ],
            "name": "kycCompleted",
            "outputs": [
                {
                    "internalType": "bool",
                    "name": "",
                    "type": "bool"
                }
            ],
            "stateMutability": "view",
            "type": "function"
        },
        {
            "inputs": [],
            "name": "owner",
            "outputs": [
                {
                    "internalType": "address",
                    "name": "",
                    "type": "address"
                }
            ],
            "stateMutability": "view",
            "type": "function"
        },
        {
            "inputs": [],
            "name": "renounceOwnership",
            "outputs": [],
            "stateMutability": "nonpayable",
            "type": "function"
        },
        {
            "inputs": [
                {
                    "internalType": "address",
                    "name": "_addr",
                    "type": "address"
                }
            ],
            "name": "setKycCompleted",
            "outputs": [],
            "stateMutability": "nonpayable",
            "type": "function"
        },
        {
            "inputs": [
                {
                    "internalType": "address",
                    "name": "_addr",
                    "type": "address"
                }
            ],
            "name": "setKycRevoked",
            "outputs": [],
            "stateMutability": "nonpayable",
            "type": "function"
        },
        {
            "inputs": [
                {
                    "internalType": "address",
                    "name": "newOwner",
                    "type": "address"
                }
            ],
            "name": "transferOwnership",
            "outputs": [],
            "stateMutability": "nonpayable",
            "type": "function"
        }
    ],
    "bytecode": "608060405260006100176001600160e01b0361006616565b600080546001600160a01b0319166001600160a01b0383169081178255604051929350917f8be0079c531659141344cd1fd0a4f28419497f9722a3daafe3b4186f6b6457e0908290a35061006a565b3390565b610480806100796000396000f3fe608060405234801561001057600080fd5b50600436106100625760003560e01c806370c9aedd14610067578063715018a61461008f5780638da5cb5b14610097578063dc3958cc146100bb578063df235fe4146100e1578063f2fde38b1461011b575b600080fd5b61008d6004803603602081101561007d57600080fd5b50356001600160a01b0316610141565b005b61008d6101c0565b61009f610262565b604080516001600160a01b039092168252519081900360200190f35b61008d600480360360208110156100d157600080fd5b50356001600160a01b0316610271565b610107600480360360208110156100f757600080fd5b50356001600160a01b03166102ea565b604080519115158252519081900360200190f35b61008d6004803603602081101561013157600080fd5b50356001600160a01b0316610308565b610149610400565b6000546001600160a01b03908116911614610199576040805162461bcd60e51b8152602060048201819052602482015260008051602061042b833981519152604482015290519081900360640190fd5b6001600160a01b03166000908152600160208190526040909120805460ff19169091179055565b6101c8610400565b6000546001600160a01b03908116911614610218576040805162461bcd60e51b8152602060048201819052602482015260008051602061042b833981519152604482015290519081900360640190fd5b600080546040516001600160a01b03909116907f8be0079c531659141344cd1fd0a4f28419497f9722a3daafe3b4186f6b6457e0908390a3600080546001600160a01b0319169055565b6000546001600160a01b031690565b610279610400565b6000546001600160a01b039081169116146102c9576040805162461bcd60e51b8152602060048201819052602482015260008051602061042b833981519152604482015290519081900360640190fd5b6001600160a01b03166000908152600160205260409020805460ff19169055565b6001600160a01b031660009081526001602052604090205460ff1690565b610310610400565b6000546001600160a01b03908116911614610360576040805162461bcd60e51b8152602060048201819052602482015260008051602061042b833981519152604482015290519081900360640190fd5b6001600160a01b0381166103a55760405162461bcd60e51b81526004018080602001828103825260268152602001806104056026913960400191505060405180910390fd5b600080546040516001600160a01b03808516939216917f8be0079c531659141344cd1fd0a4f28419497f9722a3daafe3b4186f6b6457e091a3600080546001600160a01b0319166001600160a01b0392909216919091179055565b339056fe4f776e61626c653a206e6577206f776e657220697320746865207a65726f20616464726573734f776e61626c653a2063616c6c6572206973206e6f7420746865206f776e6572a26469706673582212209c527ee55dc6a570f94490fc7f7fb930afac31298bbb99129712170925cce72464736f6c63430006020033",
    "sourcePath": "g:/truffle-react-pj/contracts/KycContract.sol",
    "compiler": {
        "name": "solc",
        "version": "0.6.2+commit.bacdbe57"
    },
    "functionHashes": {
        "kycCompleted(address)": "df235fe4",
        "owner()": "8da5cb5b",
        "renounceOwnership()": "715018a6",
        "setKycCompleted(address)": "70c9aedd",
        "setKycRevoked(address)": "dc3958cc",
        "transferOwnership(address)": "f2fde38b"
    },
    "gasEstimates": {
        "creation": {
            "codeDepositCost": "230400",
            "executionCost": "infinite",
            "totalCost": "infinite"
        },
        "external": {
            "kycCompleted(address)": "1220",
            "owner()": "1059",
            "renounceOwnership()": "infinite",
            "setKycCompleted(address)": "infinite",
            "setKycRevoked(address)": "infinite",
            "transferOwnership(address)": "infinite"
        }
    }
}